:100000000C9446000C9465000C9465000C946500FB
:100010000C9465000C9465000C9465000C946500CC
:100020000C9465000C9465000C9465000C946500BC
:100030000C9465000C9465000C9465000C946500AC
:100040000C9465000C9465000C9465000C9465009C
:100050000C9465000C94E3010C9465000C9465000D
:100060000C9465000C9465000C9465000C9465007C
:100070000C9465000C9465000C9465000C9465006C
:100080000C9465000C9465000C94650011241FBE4F
:10009000CFEFD0E1DEBFCDBF11E0A0E0B1E0EAEBF1
:1000A000F6E000E00BBF02C007900D92A631B10749
:1000B000D9F711E0A6E1B1E001C01D92AE31B10760
:1000C000E1F70E949C010C945B030C940000AF9834
:1000D00088230CF4AF9AAE9886FDAE9AAD9885FD54
:1000E000AD9AAC9884FDAC9A979A0000979800005E
:1000F00008951F93182F959897980E946700812F55
:100100008295807F0E9467001F9108951F93182F8A
:10011000959A97980E946700812F8295807F0E9410
:1001200067001F9108950F931F93DF93CF9300D023
:10013000CDB7DEB78C011A821982E981FA81E80F06
:10014000F91F80818823B9F0E981FA81E00FF11F5E
:1001500080810E94860089819A8101969A83898391
:100160008AE18A95F1F700C0E981FA81E00FF11F79
:100170008081882349F70F900F90CF91DF911F91D5
:100180000F9108951F93182F8AE18A95F1F700C007
:10019000812F82958F70282F30E02A30310514F49A
:1001A000805D01C0895C9AE19A95F1F700C00E94D8
:1001B00086008AE18A95F1F700C0212F30E02F7088
:1001C00030702A30310524F41F70812F805D03C008
:1001D0001F70812F895C0E9486009AE19A95F1F741
:1001E00000C01F91089587EA91E60197F1F700C0DA
:1001F00000009598979880E30E94670083EC99E04F
:100200000197F1F700C0000080E30E94670089EFCA
:1002100090E00197F1F700C0000080E30E946700C2
:1002200089EF90E00197F1F700C0000088E20E949A
:10023000670089EF90E00197F1F700C0000088E2C5
:100240000E94790089EF90E00197F1F700C000006B
:1002500088E00E94790089EF90E00197F1F700C0F3
:10026000000081E00E94790087EE93E00197F1F7AA
:1002700000C0000086E00E94790089EF90E00197BD
:10028000F1F700C000008CE00E94790089EF90E057
:100290000197F1F700C000000895982F907F95BB5B
:1002A000959AE5E6F0E0908190689083A9EFB0E040
:1002B0001197F1F700C0000090819F779083959887
:1002C000A9EFB0E01197F1F700C0000090E082952F
:1002D0009295907F9827807F982785BB959A8081FB
:1002E0008068808389EF90E00197F1F700C00000FB
:1002F00080818F7780839598A9EFB0E01197F1F70F
:1003000000C0000008951F93CF93DF93EC01FE011E
:100310002491222369F010E0FC0184910E944D0198
:100320001F5FCE01810F911DFC0124912223A1F7B3
:10033000DF91CF911F910895D19A8FEF84BB8FE306
:100340009DE0A3E081509040A040E1F700C0000094
:10035000E1E6F0E08081877F8083AFE1BEE4119722
:10036000F1F700C00000AB98AA98A998A8988F9AB6
:100370008D9A9598E2E6F0E080818D7F808387B149
:10038000836287B98FE886B98FE39DE0A3E081504F
:100390009040A040E1F700C000000E94F30081E01F
:1003A0000E947900A3ECB9E01197F1F700C00000BA
:1003B00080E091E00E949300789484B7886284BFC3
:1003C000369A8895FECF1F920F920FB60F920BB6FA
:1003D0000F9211242F933F934F935F936F937F93CB
:1003E0008F939F93AF93BF93CF93DF93EF93FF933D
:1003F00081E00E94790083EC99E00197F1F700C059
:10040000000085B190E090931701809316018091D0
:10041000160190911701CAE1D1E0BE014AE050E017
:100420000E9416038CE091E00E949300CE010E948E
:10043000930084E191E00E9493008FE79AE1A6E0A7
:1004400081509040A040E1F700C00000369AFF9133
:10045000EF91DF91CF91BF91AF919F918F917F915C
:100460006F915F914F913F912F910F900BBE0F9025
:100470000FBE0F901F90189585E089B910929000DB
:1004800088E08AB908955D9BFECF8CB908956623F4
:1004900011F0959A01C09598882314F4DC9A01C054
:1004A000DC98982F86FF02C0DD9A01C0DD9895FF89
:1004B00002C0DE9A01C0DE9894FF02C0DF9A01C03C
:1004C000DF980000979A0000979893FF02C0DC9A8B
:1004D00001C0DC9892FF02C0DD9A01C0DD9891FF57
:1004E00002C0DE9A01C0DE9890FF02C0DF9A01C010
:1004F000DF980000979A00009798DC9ADD9ADE9AC0
:10050000DF9A662349F4843038F489E991E0019751
:10051000F1F700C0000008959DE09A95F1F7000002
:10052000089560E00E944702089580580E94910259
:10053000089581E00E949102089582E00E94910254
:10054000089561E00E9447020895CF93DF93EC0184
:100550008881882331F021960E94A1028991882305
:10056000D9F7DF91CF910895CF93DF93EC01FC0190
:100570008491882341F021960E94A102FE012196D8
:1005800084918823C9F7DF91CF9108958F9A8D9A2E
:10059000D49AD59AD69AD79A97989598DC9ADD9A54
:1005A000DE9ADF9A85EA9EE00197F1F700C000002D
:1005B000DC98DD980000979A0000979880E094E01E
:1005C0000197F1F700C00000979A0000979891E218
:1005D0009A95F1F70000979A000097988DE08A9518
:1005E000F1F70000DF980000979A000097989DE0CF
:1005F0009A95F1F70000DF980000979A000097980D
:100600000000DC9A0000979A000097988DE08A9588
:10061000F1F7000088E00E9491020E94990286E0B2
:100620000E9491028CE00E9491020895FB019F01BB
:10063000E8944230C4F04532B4F44A3029F497FBD0
:100640001EF4909581959F4F642F77270E94470352
:10065000805D8A330CF0895D8193CB010097A1F70F
:1006600016F45DE251931082C9010C943703DC014A
:10067000FC01672F71917723E1F7329704C07C91D9
:100680006D9370836291AE17BF07C8F30895AA1BDC
:10069000BB1B51E107C0AA1FBB1FA617B70710F06D
:1006A000A61BB70B881F991F5A95A9F7809590959F
:0A06B000BC01CD010895F894FFCFBE
:1006BA005374617274696E672E2E2E00524F4F4D1D
:0606CA00313A200043005C
:00000001FF
