:100000000C9446000C9465000C9465000C946500FB
:100010000C9465000C9465000C9465000C946500CC
:100020000C9465000C9465000C9465000C946500BC
:100030000C9465000C9465000C9465000C946500AC
:100040000C9465000C9465000C9465000C9465009C
:100050000C9465000C94F0010C9465000C94650000
:100060000C9465000C9465000C9465000C9465007C
:100070000C9465000C9465000C9465000C9465006C
:100080000C9465000C9465000C94650011241FBE4F
:10009000CFEFD0E1DEBFCDBF11E0A0E0B1E0E0E600
:1000A000F5E000E00BBF02C007900D92A631B1074A
:1000B000D9F711E0A6E1B1E001C01D92AE31B10760
:1000C000E1F70E94A7010C94AE020C94000085E0B9
:1000D00089B91092900088E08AB908955D9BFECF9F
:1000E0008CB90895AF9888230CF4AF9AAE9886FD2A
:1000F000AE9AAD9885FDAD9AAC9884FDAC9A979A6E
:1001000000009798000008951F93182F95989798CE
:100110000E947200812F8295807F0E9472001F9141
:1001200008951F93182F959A97980E947200812F17
:100130008295807F0E9472001F9108950F931F93F4
:10014000DF93CF9300D0CDB7DEB78C011A8219822E
:10015000E981FA81E80FF91F80818823B9F0E981EC
:10016000FA81E00FF11F80810E94910089819A81BC
:1001700001969A8389838AE18A95F1F700C0E98123
:10018000FA81E00FF11F8081882349F70F900F90CB
:10019000CF91DF911F910F9108951F93182F8AE13E
:1001A0008A95F1F700C0812F82958F70282F30E05B
:1001B0002A30310514F4805D01C0895C9AE19A957A
:1001C000F1F700C00E9491008AE18A95F1F700C022
:1001D000212F30E02F7030702A30310524F41F7049
:1001E000812F805D03C01F70812F895C0E94910068
:1001F0009AE19A95F1F700C01F91089587EA91E678
:100200000197F1F700C000009598979880E30E944D
:10021000720083EC99E00197F1F700C0000080E3E1
:100220000E94720089EF90E00197F1F700C0000092
:1002300080E30E94720089EF90E00197F1F700C01F
:10024000000088E20E94720089EF90E00197F1F7C8
:1002500000C0000088E20E94840089EF90E00197CE
:10026000F1F700C0000088E00E94840089EF90E070
:100270000197F1F700C0000081E00E94840087EE42
:1002800093E00197F1F700C0000086E00E9484002F
:1002900089EF90E00197F1F700C000008CE00E9428
:1002A000840089EF90E00197F1F700C00000089505
:1002B000982F907F95BB959AE5E6F0E09081906845
:1002C0009083A9EFB0E01197F1F700C00000908192
:1002D0009F7790839598A9EFB0E01197F1F700C050
:1002E000000090E082959295907F9827807F9827D4
:1002F00085BB959A80818068808389EF90E0019723
:10030000F1F700C0000080818F7780839598A9EF76
:10031000B0E01197F1F700C0000008951F93CF934C
:10032000DF93EC01FE012491222369F010E0FC012F
:1003300084910E9458011F5FCE01810F911DFC0125
:1003400024912223A1F7DF91CF911F910895D19A93
:10035000D9988FEF84BB8FE39DE0A3E0815090405C
:10036000A040E1F700C00000E1E6F0E08081877F77
:100370008083AFE1BEE41197F1F700C00000AB98B5
:10038000AA98A998A8988F9A8D9A9598E2E6F0E095
:1003900080818D7F808387B1836087B98FE886B93C
:1003A0000E9467008FE39DE0A3E081509040A04051
:1003B000E1F700C000000E94FE0081E00E9484007E
:1003C000A3ECB9E01197F1F700C0000080E091E0E4
:1003D0000E949E00789484B7886284BF369AFFCFCB
:1003E0001F920F920FB60F920BB60F9211242F93FC
:1003F0003F934F935F936F937F938F939F93AF93AD
:10040000BF93CF93DF93EF93FF9381E00E9484002B
:1004100083EC99E00197F1F700C0000044B155B1B9
:1004200024EF31E0429FC001439F900D529F900DF9
:100430001124892F9927869586959093170180938B
:1004400016018091160190911701CAE1D1E0BE0119
:100450004AE050E00E9469028CE091E00E949E0018
:10046000CE010E949E0084E191E00E949E00CE0198
:100470000E946E0080911601909117018A319105BA
:100480000CF0D99880911601909117018631910551
:100490000CF4D99A8FE79AE1A6E081509040A040F1
:1004A000E1F700C00000369AFF91EF91DF91CF9104
:1004B000BF91AF919F918F917F916F915F914F917C
:1004C0003F912F910F900BBE0F900FBE0F901F907A
:1004D0001895FB019F01E8944230C4F04532B4F412
:1004E0004A3029F497FB1EF4909581959F4F642F15
:1004F00077270E949A02805D8A330CF0895D819390
:10050000CB010097A1F716F45DE251931082C90167
:100510000C948A02DC01FC01672F71917723E1F7CB
:10052000329704C07C916D9370836291AE17BF07C0
:10053000C8F30895AA1BBB1B51E107C0AA1FBB1F2C
:10054000A617B70710F0A61BB70B881F991F5A955F
:10055000A9F780959095BC01CD010895F894FFCF3F
:100560005374617274696E672E2E2E00524F4F4D78
:06057000313A20004300B7
:00000001FF
