:100000000C9446000C9465000C9465000C946500FB
:100010000C9465000C9465000C9465000C946500CC
:100020000C9465000C9465000C9465000C946500BC
:100030000C9465000C9465000C9465000C946500AC
:100040000C9465000C9465000C9465000C9465009C
:100050000C9465000C94F2010C9465000C946500FE
:100060000C9465000C9465000C9465000C9465007C
:100070000C9465000C9465000C9465000C9465006C
:100080000C9465000C9465000C94650011241FBE4F
:10009000CFEFD0E1DEBFCDBF11E0A0E0B1E0ECE7F3
:1000A000F5E000E00BBF02C007900D92A031B10750
:1000B000D9F711E0A0E1B1E001C01D92AC31B10768
:1000C000E1F70E94A5010C94BC020C940000AF98CB
:1000D00088230CF4AF9AAE9886FDAE9AAD9885FD54
:1000E000AD9AAC9884FDAC9A979A82E08A95F1F724
:1000F00000C0979882E08A95F1F700C008951F9399
:10010000182F959897980E946700812F8295807F7D
:100110000E9467001F9108951F93182F959A979832
:100120000E946700812F8295807F0E9467001F9147
:1001300008950F931F93DF93CF9300D0CDB7DEB711
:100140008C011A821982E981FA81E80FF91F8081F6
:100150008823B9F0E981FA81E00FF11F80810E94C4
:100160008C0089819A8101969A83898385ED8A958D
:10017000F1F70000E981FA81E00FF11F8081882307
:1001800049F70F900F90CF91DF911F910F91089534
:100190001F93182F85ED8A95F1F70000812F829526
:1001A0008F70282F30E02A30310514F4805D01C0B3
:1001B000895C95ED9A95F1F700000E948C0085ED21
:1001C0008A95F1F70000212F30E02F7030702A302F
:1001D000310524F41F70812F805D03C01F70812FB3
:1001E000895C0E948C0095ED9A95F1F700001F91B3
:1001F00008958FEF90E7A2E081509040A040E1F792
:1002000000C000009598979880E30E946700AFE1D6
:10021000BEE41197F1F700C0000080E30E94670080
:100220008FEC97E00197F1F700C0000080E30E9497
:100230006700AFECB7E01197F1F700C0000088E26B
:100240000E9467008FEC97E00197F1F700C0000073
:1002500088E20E947F00AFECB7E01197F1F700C091
:10026000000088E00E947F008FEC97E00197F1F793
:1002700000C0000081E00E947F00AFE3BFE1119762
:10028000F1F700C0000086E00E947F008FEC97E04D
:100290000197F1F700C000008CE00E947F00AFECF6
:1002A000B7E01197F1F700C000000895982F907FF4
:1002B00095BB959AE5E6F0E0908190689083AFEC6D
:1002C000B7E01197F1F700C0000090819F7790830D
:1002D0009598AFECB7E01197F1F700C0000090E0FF
:1002E00082959295907F9827807F982785BB959AD5
:1002F0008081806880838FEC97E00197F1F700C0E0
:10030000000080818F7780839598AFECB7E01197DC
:10031000F1F700C0000008951F93CF93DF93EC0125
:10032000FE012491222369F010E0FC0184910E94D7
:1003300056011F5FCE01810F911DFC0124912223E4
:10034000A1F7DF91CF911F910895D19AD9988FEF9E
:1003500084BBE1E6F0E08081877F80838FEF93EFBD
:10036000A1E081509040A040E1F700C00000AB98B0
:10037000AA98A998A8988F9A8D9A9598E2E6F0E0A5
:1003800080818D7F808387B1836487B986B18F68D0
:1003900086B98FEF99E6A8E181509040A040E1F73F
:1003A00000C000000E94F90081E00E947F00AFE1E0
:1003B000BEE41197F1F700C0000080E091E00E94D8
:1003C0009900789484B7886284BF369A8091190125
:1003D00090911A0181309105C9F710921A0110927B
:1003E0001901F4CF1F920F920FB60F920BB60F9216
:1003F0001124EF92FF922F933F934F935F936F934C
:100400007F938F939F93AF93BF93CF93DF93EF939C
:10041000FF93C6E1D1E07E018C2F9F2D60E070E05C
:1004200043E050E00E94700281E00E947F008FE173
:100430009EE40197F1F700C0000044B155B124EFEC
:1004400031E0429FC001439F900D529F900D1124B7
:10045000892F992786958695909311018093100195
:100460008091100190911101BE014AE050E00E947C
:10047000770285E091E00E949900CE010E949900E8
:100480008DE091E00E9499008FEF94E3ACE0815001
:100490009040A040E1F700C00000369AFF91EF9134
:1004A000DF91CF91BF91AF919F918F917F916F918C
:1004B0005F914F913F912F91FF90EF900F900BBE66
:1004C0000F900FBE0F901F90189583E389B910927B
:1004D000900088E08AB908955D9BFECF8CB908959D
:1004E000DC0101C06D9341505040E0F70895FB01DD
:1004F0009F01E8944230C4F04532B4F44A3029F404
:1005000097FB1EF4909581959F4F642F77270E944B
:10051000A802805D8A330CF0895D8193CB0100973E
:10052000A1F716F45DE251931082C9010C94980270
:10053000DC01FC01672F71917723E1F7329704C04A
:100540007C916D9370836291AE17BF07C8F30895D5
:10055000AA1BBB1B51E107C0AA1FBB1FA617B707E9
:1005600010F0A61BB70B881F991F5A95A9F7809505
:0C0570009095BC01CD010895F894FFCFD8
:10057C007364736400524F4F4D313A2000430000B6
:00000001FF
