:100000000C9446000C9465000C9465000C946500FB
:100010000C9465000C9465000C9465000C946500CC
:100020000C9465000C9465000C9465000C946500BC
:100030000C9465000C9465000C9465000C946500AC
:100040000C9465000C9465000C9465000C9465009C
:100050000C9465000C9465000C9465000C9465008C
:100060000C9465000C9465000C9465000C9465007C
:100070000C9465000C9465000C9465000C9465006C
:100080000C9465000C9465000C94650011241FBE4F
:10009000CFEFD0E1DEBFCDBF11E0A0E0B1E0EEEBED
:1000A000F8E000E00BBF02C007900D92A431B10749
:1000B000D9F711E0A4E1B1E001C01D92A835B10764
:1000C000E1F70E9425030C945D040C940000AF98A6
:1000D00088230CF4AF9AAE9886FDAE9AAD9885FD54
:1000E000AD9AAC9884FDAC9A979A0000979800005E
:1000F00008951F93182F959897980E946700812F55
:100100008295807F0E9467001F9108951F93182F8A
:10011000959A97980E946700812F8295807F0E9410
:1001200067001F9108950F931F93DF93CF9300D023
:10013000CDB7DEB78C011A821982E981FA81E80F06
:10014000F91F80818823B9F0E981FA81E00FF11F5E
:1001500080810E94860089819A8101969A83898391
:100160008AE18A95F1F700C0E981FA81E00FF11F79
:100170008081882349F70F900F90CF91DF911F91D5
:100180000F9108951F93182F8AE18A95F1F700C007
:10019000812F82958F70282F30E02A30310514F49A
:1001A000805D01C0895C9AE19A95F1F700C00E94D8
:1001B00086008AE18A95F1F700C0212F30E02F7088
:1001C00030702A30310524F41F70812F805D03C008
:1001D0001F70812F895C0E9486009AE19A95F1F741
:1001E00000C01F91089587EA91E60197F1F700C0DA
:1001F00000009598979880E30E94670083EC99E04F
:100200000197F1F700C0000080E30E94670089EFCA
:1002100090E00197F1F700C0000080E30E946700C2
:1002200089EF90E00197F1F700C0000088E20E949A
:10023000670089EF90E00197F1F700C0000088E2C5
:100240000E94790089EF90E00197F1F700C000006B
:1002500088E00E94790089EF90E00197F1F700C0F3
:10026000000081E00E94790087EE93E00197F1F7AA
:1002700000C0000086E00E94790089EF90E00197BD
:10028000F1F700C000008CE00E94790089EF90E057
:100290000197F1F700C000000895982F907F95BB5B
:1002A000959AE5E6F0E0908190689083A9EFB0E040
:1002B0001197F1F700C0000090819F779083959887
:1002C000A9EFB0E01197F1F700C0000090E082952F
:1002D0009295907F9827807F982785BB959A8081FB
:1002E0008068808389EF90E00197F1F700C00000FB
:1002F00080818F7780839598A9EFB0E01197F1F70F
:1003000000C0000008951F93CF93DF93EC01FE011E
:100310002491222369F010E0FC0184910E944D0198
:100320001F5FCE01810F911DFC0124912223A1F7B3
:10033000DF91CF911F9108952FEF20931401209109
:10034000140120935501603C22E1720720E08207EE
:1003500020E0920729F4109290008FEC89B952C0E6
:10036000603825E2720720E0820720E0920729F436
:100370001092900087E689B945C0603428E372077F
:1003800020E0820720E0920729F41092900084E494
:1003900089B938C060302BE4720720E0820720E082
:1003A000920729F41092900083E389B92BC0603042
:1003B00026E9720720E0820720E0920729F41092D4
:1003C000900089E189B91EC0603021EE720720E0FB
:1003D000820720E0920729F41092900080E189B909
:1003E00011C0603022EC720721E0820720E0920702
:1003F00029F41092900088E089B904C0109290000E
:1004000088E089B91BB888E98AB996E0909395008D
:100410008AB908955D9BFECF8CB908955F9BFECF8E
:100420008CB10895EF92FF920F931F93DF93CF93B8
:10043000CDB7DEB7A8970FB6F894DEBF0FBECDBF1D
:10044000009721F480E30E940A0229C0FE01319640
:1004500000E010E02AE030E0B9010E944904806326
:1004600081939193862F972F0F5F1F4F0097A1F7CE
:1004700078010894E108F108FF208CF0000F111FAB
:10048000CE010196080F191F02501040F80180811B
:100490000E940A020894E108F108FF20ACF7A89630
:1004A0000FB6F894DEBF0FBECDBFCF91DF911F9185
:1004B0000F91FF90EF900895CF93DF93EC01888127
:1004C000882331F021960E940A0289918823D9F766
:1004D000DF91CF910895EF92FF920F931F93DF93D7
:1004E000CF93CDB7DEB72A970FB6F894DEBF0FBE15
:1004F000CDBF7E010894E11CF11C00E010E009C0B2
:1005000090E08F709070F701819391937F010F5F5E
:100510001F4F0E940E028D3099F7C801019732F1EA
:10052000F801EE0FFF1FBE016F5F7F4FE60FF71F51
:1005300020E030E081E090E0B291A2918A9FA0019A
:100540008B9F500D9A9F500D1124240F351FAC0125
:10055000440F551F880F991F880F991F880F991FE7
:10056000840F951FE617F70739F702C020E030E047
:10057000822F932F2A960FB6F894DEBF0FBECDBF01
:10058000CF91DF911F910F91FF90EF900895CF933E
:10059000DF93EC010E940E028D3011F08993FACFA7
:1005A000DF91CF910895809155018F3FD1F09091C7
:1005B00055018091140198173CF480911401909199
:1005C00055018F5F891B0895909155018091140109
:1005D00089174CF480911401909155018F5B891B10
:1005E000089580E0089581E00895809155018F3F3E
:1005F00011F1E0915501FF27E7FDF095EB5EFE4F0D
:1006000080812091550190911401291741F49FEFA9
:100610009093140190911401909355010895909135
:1006200055019F5F9093550190915501903421F4AD
:1006300010925501089580E0089502C00E94F502CD
:100640000E94D3028823D1F708950F931F93CF936D
:10065000DF93D19AD9988FEF84BBAB98AA98A998C9
:10066000A8988F9A8D9A95988FE39DE0A3E081508A
:100670009040A040E1F700C000000E94F30081E03C
:100680000E947900A3ECB9E01197F1F700C00000D7
:1006900080E091E00E9493007894CAE0D1E002E10A
:1006A00011E08FE79AE1A6E081509040A040E1F789
:1006B00000C000000E94D302882331F00E94F5029E
:1006C000809356011092570181E00E947900A3ECBB
:1006D000B9E01197F1F700C00000CE010E9493002D
:1006E00080915601909157010E949300C8010E9489
:1006F0009300D7CF662311F0959A01C0959888236F
:1007000014F4DC9A01C0DC98982F86FF02C0DD9AB1
:1007100001C0DD9895FF02C0DE9A01C0DE9894FF0B
:1007200002C0DF9A01C0DF980000979A00009798F6
:1007300093FF02C0DC9A01C0DC9892FF02C0DD9AF0
:1007400001C0DD9891FF02C0DE9A01C0DE9890FFE3
:1007500002C0DF9A01C0DF980000979A00009798C6
:10076000DC9ADD9ADE9ADF9A662349F4843038F405
:1007700089E991E00197F1F700C0000008959DE03C
:100780009A95F1F70000089560E00E947A030895B9
:1007900080580E94C403089581E00E94C403089514
:1007A00082E00E94C403089561E00E947A030895E4
:1007B000CF93DF93EC018881882331F021960E944A
:1007C000D40389918823D9F7DF91CF910895CF93EE
:1007D000DF93EC01FC018491882341F021960E9473
:1007E000D403FE01219684918823C9F7DF91CF912C
:1007F00008958F9A8D9AD49AD59AD69AD79A97981F
:100800009598DC9ADD9ADE9ADF9A85EA9EE0019758
:10081000F1F700C00000DC98DD980000979A000016
:10082000979880E094E00197F1F700C00000979A54
:100830000000979891E29A95F1F70000979A0000CE
:1008400097988DE08A95F1F70000DF980000979A5D
:10085000000097989DE09A95F1F70000DF9800005E
:10086000979A000097980000DC9A0000979A000081
:1008700097988DE08A95F1F7000088E00E94C40304
:100880000E94CC0386E00E94C4038CE00E94C40353
:100890000895AA1BBB1B51E107C0AA1FBB1FA617C7
:1008A000B70710F0A61BB70B881F991F5A95A9F719
:0E08B00080959095BC01CD010895F894FFCF7E
:1008BE004D61696E626F61726400524F4F4D313AF5
:0408CE0020004300C3
:00000001FF
